:020000040800F2
:10000000C0040020010100086F160008FF1200085C
:100010006D1600086D010008F517000800000000CB
:10002000000000000000000000000000731600083F
:10003000A1010008000000007116000875160008F4
:100040001B0100081B0100081B0100081B01000820
:100050001B0100081B0100081B0100081B01000810
:100060001B0100081B0100081B0100081B01000800
:100070001B0100081B0100081B0100081B010008F0
:100080001B0100081B0100081B0100081B010008E0
:100090001B0100081B0100081B0100081B010008D0
:1000A0001B0100081B0100081B0100081B010008C0
:1000B0001B0100081B0100081B0100081B010008B0
:1000C0001B0100081B0100081B0100081B010008A0
:1000D0001B0100081B0100081B0100081B01000890
:1000E0001B0100081B0100081B010008DFF80CD0F1
:1000F00000F02AF80048004799180008C0040020C2
:100100000648804706480047FEE7FEE7FEE7FEE7B1
:10011000FEE7FEE7FEE7FEE7FEE7FEE7D71600088C
:10012000ED000008D2B201E000F8012B491EFBD21D
:1001300070470022F6E710B513460A4604461946F2
:10014000FFF7F0FF204610BD064C074D06E0E068C3
:1001500040F0010394E8070098471034AC42F6D30E
:10016000FFF7C8FF90190008B0190008FEE700006B
:1001700003B581B04FF47A7100914100012302AAC6
:10018000014800F013FC0EBD1800002010B501223C
:100190005102024800F03BFB002010BD0008014066
:1001A0007047000070B50CA001F026FB104D4FF415
:1001B00080742146284600F025FB012803D0012049
:1001C00000F01EFAF5E70A2000F01AFABDE87040C8
:1001D00008A001F011BB000044656275673A206514
:1001E0002D506170657220627573790D0A000000F0
:1001F0000008014044656275673A20652D506170C2
:10020000657220627573792072656C656173650D26
:100210000A00000070B501220D4D54022146284607
:1002200000F0F5FAC82000F0EBF90022214628463C
:1002300000F0EDFA142000F0E3F9012221462846EF
:1002400000F0E5FABDE87040C82000F0D9B9000020
:100250000008014001463C20FFF78ABF01463D20CF
:10026000FFF786BF10B5134C20787E20FFF7F2FF12
:100270008120FFF7EFFFB420FFF7ECFF0A2000F02A
:10028000BFF9E720FFF7E6FF2078052801D23120EB
:100290000CE00A2801D2222008E00F2801D2182001
:1002A00004E0142801D2132000E00E20BDE8104025
:1002B000FFF7D0BF1000002070B50546AC20FFF757
:1002C000C9FF2B20FFF7C6FF4020FFF7C3FFA9207F
:1002D000FFF7C0FFA820FFF7BDFF0024285DFFF750
:1002E000BDFF641CE4B20F2CF8D30020FFF7B6FF6B
:1002F000AB20FFF7AFFFAA20FFF7ACFFAF20FFF75F
:10030000A9FFFFF74FFFAE20FFF7A4FF2820FFF75C
:10031000A1FFBDE87040AD20FFF79CBF70B505465A
:10032000AC20FFF797FF2B20FFF794FF4020FFF74B
:1003300091FFA920FFF78EFFA820FFF78BFF002475
:10034000285DFFF78BFF641CE4B20F2CF8D3032069
:10035000FFF784FFAB20FFF77DFFAA20FFF77AFFAE
:10036000AF20FFF777FFFFF71DFFAE20FFF772FF0B
:100370002820FFF76FFFBDE87040AD20FFF76ABF90
:1003800010B5FFF747FF642000F03AF92B20FFF784
:1003900061FF0A2000F034F9A720FFF75BFFE0209F
:1003A000FFF758FF0A2000F02BF9BDE81040FFF7D7
:1003B00059BF10B58220FFF74DFF2820FFF74AFFF5
:1003C0002020FFF747FFA820FFF744FFA020FFF7FA
:1003D00041FF5020FFF73EFFBDE810406520FFF7CA
:1003E00039BF10B58220FFF735FF8020FFF732FFBD
:1003F0000020FFF72FFFC020FFF72CFF8020FFF722
:1004000029FF8020FFF726FFBDE810406220FFF79C
:1004100021BF10B58220FFF71DFF2020FFF71AFF34
:100420000020FFF717FFA020FFF714FF8020FFF741
:1004300011FF4020FFF70EFFBDE810406320FFF7DB
:1004400009BF10B52820FFF705FFFFF7ABFEAC2072
:10045000FFF700FFBDE810404FF4FA6000F0D0B89D
:1004600010B54BA001F0C8F9FFF790FE10B14FF0A6
:10047000FF3010BD4CA001F0BFF9FFF781FFFFF77F
:1004800098FF504801F0F0F94F48FFF715FF4FF47F
:10049000FA74204600F0B4F8FFF7BBFF4B4801F0B8
:1004A000E3F94948FFF73AFF204600F0A9F845482C
:1004B00001F0DAF94448FFF7FFFE204600F0A0F80B
:1004C000FFF78FFF424801F0CFF93F48FFF7F4FEF6
:1004D000204600F095F83F4801F0C6F93A48FFF78A
:1004E000EBFE204600F08CF83B4801F0BDF93648A1
:1004F000FFF7E2FE204600F083F8384801F0B4F937
:100500003148FFF7D9FE204600F07AF8344801F070
:10051000ABF92D48FFF7D0FE204600F071F83148C6
:1005200001F0A2F92848FFF7C7FE204600F068F85E
:100530002D4801F099F92448FFF7BEFE204600F04F
:100540005FF82A4801F090F91F48FFF7B5FE2046F2
:1005500000F056F8264801F087F91B48FFF7ACFE7B
:10056000204600F04DF8234801F07EF91648FFF7C9
:10057000A3FE204600F044F81F4801F075F9124828
:10058000FFF79AFE204600F03BF8FFF75AFF10BD38
:100590004550445F31494E395F746573742044653A
:1005A0006D6F0D0A00000000652D506170657220AE
:1005B000496E697420616E6420436C6561722E2EF1
:1005C0002E0D0A00D9180008AC000020CA18000837
:1005D000F718000806190008151900082419000862
:1005E0003319000842190008511900086019000861
:1005F0006F1900087E190008E818000872B6FEE7B7
:1006000070B5044600F008F90546601C02D00448A5
:100610000078044400F000F9401BA042FAD370BDFA
:10062000000000202DE9F84FDFF8B891002409F10F
:10063000040A0AF1040B23460F270BF1040EC9E04C
:100640000125A5402A40AA427DD1674ED1F804C0B9
:10065000ACEB0608B44532D014DCBCF1030F3AD041
:1006600009DCBCF1000F2AD0BCF1010F1CD0BCF199
:10067000020F31D11DE0BCF1110F17D0BCF1120FE8
:100680002AD119E0B8F5881F19D006DCB8F5803FEB
:1006900015D0B8F5801F1FD111E0B8F5001F0ED09E
:1006A000B8F5041F18D10AE0CB6815E0CB681B1D14
:1006B00012E0CB6808330FE0CB680C330CE08B689A
:1006C0002BB1012B4FF0080303D0456104E0042354
:1006D00002E0056100E00023FF2A01D8064601E0A0
:1006E00000F104064FEA840501D9A5F12005D6F8EA
:1006F000008007FA05FC28EA0C0803FA05F548EA29
:100700000508C6F800804D68ED0062D5374DAE692A
:1007100046F00106AE61AD6924F0030605F001055F
:100720000095334D06EB050CDCF80850A607360F94
:1007300007FA06F825EA0805DFF8B880404503D136
:100740004FF0000817E044E0DFF8AC80404502D1EC
:100750004FF001080FE0DFF8A480404502D14FF0D0
:10076000020808E0DFF89880404502D14FF0030806
:1007700001E04FF0040808FA06F848EA0508CCF84A
:1007800008804D68D9F80060ED034D4601D5164349
:1007900000E096432E604D68DAF80060AD035546E0
:1007A00001D5164300E096432E604D68DBF80060EB
:1007B000ED025D4601D5164300E096432E604D687C
:1007C000DEF80060AD02754601D5164300E09643A1
:1007D0002E60641C0D682A46E5407FF431AFBDE809
:1007E000F88F0000000401400000111000100240CA
:1007F0000000014000080140000C014000100140D1
:10080000001401408068084000D0012070470AB100
:10081000016170470904FBE70148806870470000E8
:100820000000002070B5040025D094F83D0000259C
:1008300020B984F83C50204600F04EF9242084F87A
:100840003D002068016821F0010101602068016815
:1008500041F4004101602068016821F40041016019
:1008600000F090FA4D4A6168914201D84C4900E08D
:100870004C49884201D2012070BD4B492368B0FB2E
:10088000F1F15E6826F03F060E435E6063689342B6
:1008900006D94FF4967359434FF47A73B1FBF3F1D1
:1008A0002368491C1E6A26F03F06314319626168BD
:1008B000914210D84900401EB0FBF1F2521CC2F325
:1008C0000B02042A01D2042022E0B0FBF1F0401C0C
:1008D000C0F30B001CE0A268F2B301EBC10303EB11
:1008E0000116431EB3FBF6F35B1C43F480431B0568
:1008F00049D092B301EBC10202EB0111401EB0FBE3
:10090000F1F0401CC0F30B0040F4804040F4004084
:100910002168CA694CF6FF739A431043C861D4E951
:10092000071001432068026822F0C00211430160F1
:10093000D4E9030101432068826848F2FF339A43F7
:1009400011438160D4E9050108432168CA6822F097
:10095000FF021043C86001E00EE016E02068016865
:1009600041F0010101602564202084F83D002563E9
:1009700084F83E50002070BD01EB4106431EB3FBDE
:10098000F6F35B1CB3E70120C2E701EB4101401E17
:10099000B0FBF1F0401CC0F30B00B7E7A0860100EC
:1009A00080841E0000093D0040420F002DE9F84FF1
:1009B0001F4690468A460446DDF82890FFF72CFF34
:1009C000054694F83D0020287FD119230122404993
:1009D0002046009500F020FD002876D194F83C00D8
:1009E000012872D0012084F83C0020680168C90702
:1009F00003D1016841F0010101602068016821F420
:100A000000610160212084F83D00102084F83E0040
:100A100000262664C4F824806785608D20852D48D3
:100A2000E0622B464A465146204600F081FC90B9D0
:100A3000206841698069009036E02A464946204690
:100A400000F069FD50B1206C042804D120680168D1
:100A500041F4007101600120BDE8F88F606A2168EF
:100A600000780861606A401C6062618D491E618582
:100A7000218D491E89B2218522685369DB435B07BA
:100A80000BD451B100781061606A401C6062608DC7
:100A9000401E6085208D401E20852A4649462046FE
:100AA00000F094FC0028CED1208D0028C5D154F848
:100AB0003D0B016841F400710160202004F81E091B
:100AC000E67766770020C7E7FFE70220C4E700006B
:100AD000020010000000FFFF10B586B00021009159
:100AE00001910291039100681349884222D1134C6D
:100AF000A06940F00800A061A069694600F0080004
:100B000004904FF440700090122001900320039055
:100B10000B48FFF787FD0B48416841F0E06141F069
:100B200002014160E06940F40010E061E06900F416
:100B30000010049006B010BD0054004000100240A8
:100B4000000C014000000140024881680278114415
:100B50008160704700000020074810B5016841F02F
:100B600010010160032000F065F8002000F006F895
:100B700000F024F8002010BD0020024070B50D4D9B
:100B800004464FF47A712878B1FBF0F00A490968FD
:100B9000B1FBF0F000F0DCFA48B9102C07D20022CB
:100BA0002146501E00F026F800206C6070BD012028
:100BB00070BD0000000000200C0000200B4808B5AC
:100BC000816941F001018161816901F001010091B8
:100BD000C16941F08051C161C06900F0805000904E
:100BE0000348416821F0E061416008BD0010024007
:100BF00000000140F0B40E4B1B680C46C3F3022307
:100C0000C3F10705042D00D90425191D072901D2B8
:100C1000002300E0DB1E012606FA05F1491E2140F3
:100C200099409E40761E16403143F0BC00F0ECBD6A
:100C30000CED00E0064900F0070208684FF6FF03DC
:100C4000184040EA0220034A104308607047000041
:100C50000CED00E00000FA052DE9F0470F46050015
:100C600061D0434E306800F00700B84209D23068C6
:100C700020F0070038433060306800F00700B842C9
:100C800051D128683B4C810712D5400703D56068D5
:100C900040F4E06060602878000703D5606840F4A5
:100CA000605060606068A96820F0F00008436060F0
:100CB0002878C00728D06868012810D02168022849
:100CC00010D0890700292EDA616821F00301014361
:100CD0006160FFF7A1FD804641F288390DE021688F
:100CE0008903EFE78901EDE7FFF796FDA0EB080127
:100CF000494502D90320BDE8F0876068696800F0C3
:100D00000C00B0EB810FEFD1306800F00700B84263
:100D10000BD9306820F0070038433060306800F0AD
:100D20000700B84201D00120E5E72878400705D543
:100D30006068E96820F4E060084360602878000794
:100D400006D56068296920F4605040EAC1006060FF
:100D500000F038F86168084AC1F30311515CC840DB
:100D60000649086006480068FFF708FF0020C2E750
:100D70000020024000100240B21800080C000020C1
:100D8000040000200448054900684968044AC1F38A
:100D90000221515CC84070470C0000200010024046
:100DA000C21800080448054900684968044AC1F3AC
:100DB000C221515CC84070470C0000200010024066
:100DC000C218000812A185B00FC98DE80F0014A049
:100DD000144A006804905168134801F00C03042B76
:100DE00010D0082B0ED1C1F38343C9031DF80300B3
:100DF0000AD5516804AAC1F34041515C0A4A5043E4
:100E0000B0FBF1F005B0704708494843FAE700002D
:100E100002030405060708090A0B0C0D0E0F10103B
:100E2000010200000010024000127A0000093D009B
:100E30002DE9F84F040070D02078C04DC00749D08C
:100E40006868C0F38100012807D06868C0F381009A
:100E5000022809D16868C00306D52868800339D5FF
:100E600060680028E7D035E06068B0F5803F0BD0BF
:100E700010B1B0F5A02F11D0286820F48030286080
:100E8000286820F4802002E0286840F48030286040
:100E9000606890B1FFF7C0FC06460AE0286840F49D
:100EA00080202860F0E700BFFFF7B6FC801B6428B5
:100EB00073D828688003F7D50CE0FFF7ADFC064631
:100EC00005E000BFFFF7A8FC801B6428F0D8286865
:100ED0008003F7D420789A4E80074FF001094FF035
:100EE000000839D5686810F00C0F07D06868C0F3A7
:100EF0008100022809D16868C00306D428688007E9
:100F000014D52069012808D110E02069B0B1C6F8D5
:100F10000090FFF781FC074605E00AE1FFF77CFC43
:100F2000C01B0228C4D828688007F7D528686169E3
:100F300020F0F80040EAC10028600DE0C6F800800B
:100F4000FFF76AFC074604E0FFF766FCC01B0228B7
:100F500023D828688007F7D4207800072CD5794853
:100F6000A169D9B1C0F80090FFF756FC074604E02C
:100F7000FFF752FCC01B02280FD8686A8007F7D51C
:100F800071484FF4FA510068B0FBF1F0009000BFD7
:100F90000098411E0091FAD20EE080E0C0F8008077
:100FA000FFF73AFC074604E0FFF736FCC01B0228B7
:100FB00075D8686A8007F7D42078400760D5E8695B
:100FC0000027C00008D4E86940F08050E861E86973
:100FD000012700F0805000905C480168C90513D4D7
:100FE0000168834641F480710160FFF715FC824679
:100FF00006E000BFFFF710FCA0EB0A0064284ED803
:10100000DBF80000C005F5D5E06801280AD008B17A
:10101000052813D0286A20F001002862286A20F0F1
:10102000040002E0286A40F001002862E06841F212
:10103000883B98B1FFF7F0FB82460BE0286A40F04E
:1010400004002862EEE700BFFFF7E6FBA0EB0A0111
:1010500059455AD8286A8007F6D50CE0FFF7DCFB23
:10106000824605E0FFF7D8FBA0EB0A0159454CD8B2
:10107000286A8007F6D41FB1E86920F08050E86143
:10108000E06988B36968C1F38101022944D002286C
:10109000C6F8608004D0FFF7BFFB044638E034E0B8
:1010A000FFF7BAFB074604E0FFF7B6FBC01B0228B8
:1010B0002BD828688001F7D4206AB0F5803F05D18D
:1010C0006868A16820F4003008436860D4E908012A
:1010D0000843696821F4741108436860C6F8609099
:1010E000FFF79AFB044606E025E000BFFFF794FBFC
:1010F000001B022809D828688001F7D51BE000BF33
:10110000FFF78AFB001B022802D90320BDE8F88FF5
:1011100028688001F4D40EE00128F7D06868226ABC
:1011200000F48031914204D1616A00F47010884269
:1011300001D00120EAE70020E8E7000000100240AB
:1011400000004242800442420C0000200070004037
:1011500010B5401EB0F1807F01D3012010BD4FF0CB
:10116000E02460610F21601700F04EFB0020A061B9
:1011700007202061002010BD70B5040004D094F851
:101180003900002510B106E0012070BD84F8385008
:10119000204600F023F8242084F839002068C16834
:1011A00021F40051C160204600F096FA20680169E0
:1011B00021F4904101612068416921F02A014161D7
:1011C0002068C16841F40051C160E563202084F8C3
:1011D000390084F83A00002070BD000030B585B0B9
:1011E00000240094019402940394006814498842F6
:1011F00023D11448C16941F40031C161C16901F4CE
:1012000000310491816941F00401816180690E4DD2
:1012100000F00400049004200090022001900320BC
:10122000039069462846FFF7FDF90820CDE9000440
:10123000694628460294FFF7F5F905B030BD000075
:101240000044004000100240000801402DE9F8432E
:10125000044690F839001F4616460D4620284CD10A
:10126000C5B1BEB194F83800012846D0012084F8F9
:1012700038004FF00008C4F83C80212084F8390081
:10128000FFF7CAFAA6848146E684A068B0F5805FBD
:1012900003D004E00120BDE8F883206928B12E4680
:1012A0005FF0000584F838800EE00026FAE7802120
:1012B000204600F06DFAA0B9AEB116F8010B216816
:1012C0004860E08C401EE084E08C4B464FF000020A
:1012D00000970028EBD14FF04001204600F058FA6B
:1012E00030B10320D7E735F8020BC0F30800E6E77A
:1012F000202084F839000020CDE70220CBE7FEE76C
:1013000001684A69D24352050FD46FF480624A6182
:10131000002140F8301F202242738173026942F09D
:101320000402026101730120704700207047000031
:10133000F8B50446C06A1E460D461746082807D071
:10134000012805D010F5803F02D0206B122804D16F
:101350002068016841F480710160134600224FF05B
:1013600001112046009600F057F840B1206800684F
:10137000C00502D54FF4007020640320F8BD206939
:10138000B0F5804F0ED00620216800EAD51040F05D
:10139000F000086133463A460B49204600F070F8E9
:1013A00078B902E005F0FE0000E0E8B221680861CB
:1013B000054933463A46891F204600F061F8002867
:1013C000DCD00120F8BD00000800010070B5164611
:1013D0000D4604460DE02046FFF792FF08B10120BC
:1013E00070BD681C05D0FFF717FA801BA84207D80C
:1013F00035B120684069C0434007ECD4002070BD7F
:10140000002044F8300F20216173A073216941F05E
:10141000200121612073E2E72DE9F0471E46904646
:101420000D460446C1F30747DDF8209008E0701C24
:1014300006D0FFF7F1F9A0EB0900B0420FD876B162
:101440002068012F18D0806925EA00000004000CF4
:1014500014D000214145EAD00020BDE8F0870020EB
:1014600044F8300F20216173A073216941F02001FD
:10147000216120730120F0E74069E5E70121E9E7F8
:101480002DE9F0479A4691460E46044600254FF056
:101490002008C1F3074725E020684069C0434005A4
:1014A00014D42068016841F40071016021686FF470
:1014B00080604861256384F83D8084F83E50206C4C
:1014C00040F00400206484F83C501FE0B9F1FF3F75
:1014D00008D0FFF7A1F9A0EB0A0149450CD8B9F1F2
:1014E000000F09D02068012F13D0806926EA000080
:1014F0000004000C0BD0CFE744F8305F84F80D8077
:10150000A573206940F02000206125730120BDE80B
:10151000F0874069EAE770B516460D4604460DE0CF
:101520002046FFF7EDFE08B1012070BD681C05D014
:10153000FFF772F9801BA84207D835B120684069CF
:10154000C0430006ECD4002070BD002044F8300FEA
:1015500020216173A073216941F020012161207372
:10156000E2E7000070B586B00024204800940194A2
:1015700002940394816941F010018161816901F055
:1015800010010491816941F020018161816901F0BC
:1015900020010491816941F004018161816901F0B8
:1015A00004010491816941F0080181618069104E54
:1015B00000F008004FF400750490002229463046E0
:1015C000FFF725F96810CDE900046946304602941A
:1015D000FFF728F801200095CDE9010402200390CF
:1015E00069463046FFF71EF806B070BD0010024095
:1015F000000801400D4810B50B4901600C494160DD
:1016000000214FF480428160C0E903124161816191
:10161000C1610162FFF706F9002803D0BDE8104060
:10162000FEF7ECBF10BD0000005400401800002081
:10163000A08601000C4810B50A4901604FF4E13161
:101640004160002181600C22C160C0E90412816107
:10165000C161FFF791FD002803D0BDE81040FEF7FF
:10166000CDBF10BD004400406C000020FEE7FEE747
:1016700070477047FFF768BA30B58FB028216846C9
:10168000FEF757FD14210AA8FEF753FD01210804B7
:10169000CDE900100024029402250491CDE9075001
:1016A0004FF4E01009906846FFF7C2FB08B172B62C
:1016B000FEE70F20CDE90A054FF48060CDE90C402C
:1016C00002210AA80E94FFF7C7FA002801D072B6CB
:1016D000FEE70FB030BD704770B504460068016981
:1016E000E26821F44051114301612169A068084377
:1016F000616908432168CA6841F20C639A43024356
:10170000CA6020684169A26921F4407111434161B6
:101710001E492068884202D1FFF744FB01E0FFF731
:1017200031FB00EBC00101EB001260686421800016
:10173000B2FBF0F3B3FBF1F36FF018067343B2FBA7
:10174000F0F5B2FBF0F605EB8305322303EB05154C
:10175000B5FBF1F5B6FBF1F605F0F00505EB061566
:10176000B2FBF0F6B2FBF0F0B0FBF1F06FF0180254
:10177000504306EB800003EB0010B0FBF1F0216852
:1017800000F00F002844886070BD00000038014060
:101790002DE9F041984617460E460446069D1DE089
:1017A000681C1BD02DB1FFF737F8A0EB0800A8424A
:1017B00014D92068C16821F4D071C16020684169E2
:1017C00021F001014161202084F8390084F83A00B9
:1017D000002084F838000320BDE8F081206800680C
:1017E00036EA000004D00020B842D9D00020F3E748
:1017F0000120F9E7FEE70000014A024900F023B8A2
:1018000081180008140000200907090E002804DBD5
:1018100000F1E02080F80014704700F00F0000F1A4
:10182000E02080F8141D704702E008C8121F08C1AC
:10183000002AFAD170477047002001E001C1121F51
:10184000002AFBD170472DE9F04116460F460446A9
:10185000002503E03946B047641C6D1C2078002841
:10186000F8D12846BDE8F081044A0021435C535476
:10187000491CC9B20F29F9D370470000AC00002001
:1018800013B54FF6FF73012269460248FFF7DEFCED
:1018900000981CBD6C000020FFF75EF9FFF7ECFE1E
:1018A000FFF760FEFFF7A6FEFFF7C4FEFEF7D8FDC8
:1018B000FEE700000000000000000102030406072C
:1018C00008090000000001020304FFFFFFFFFFFF03
:1018D000FFFFFFFFFFFFFFFFFF0000000000000011
:1018E0000000000000000000FFFFFFFFFFFFFFFF00
:1018F000FFFFFFFFFFFFFF00BF1FBF1FBF1FBF1F77
:10190000BF1FBF1F0000FF1F001F001F001F001F81
:10191000001F00000000FD17FD17FD17FD17FD1744
:10192000FD37000000F51FF51FF51FF51FF51FF52A
:101930001F000000471F471F471F471F471F473F04
:10194000000000F71DF71DF71DF71DF71DF71D001F
:101950000000FF1DFF1DFF1DFF1DFF1DFF3D0000BF
:1019600000211F211F211F211F211F211F000000F7
:10197000FF1FFF1FFF1FFF1FFF1FFF3F000000F79C
:101980001FF71FF71FF71FF71FF71F0000000000CA
:10199000B0190008000000201800000028180008F6
:1019A000C819000818000020A80400003818000812
:1019B0000100000010000000000000000024F400FE
:0819C00014000000000000000B
:04000005080000ED02
:00000001FF
